{
  "contractName": "BuyKEEYTokens",
  "abi": [
    {
      "inputs": [],
      "stateMutability": "nonpayable",
      "type": "constructor"
    },
    {
      "anonymous": false,
      "inputs": [
        {
          "indexed": false,
          "internalType": "address",
          "name": "buyer",
          "type": "address"
        },
        {
          "indexed": false,
          "internalType": "uint256",
          "name": "amount",
          "type": "uint256"
        }
      ],
      "name": "BuyTokens",
      "type": "event"
    },
    {
      "inputs": [],
      "name": "admin",
      "outputs": [
        {
          "internalType": "address",
          "name": "",
          "type": "address"
        }
      ],
      "stateMutability": "view",
      "type": "function",
      "constant": true
    },
    {
      "inputs": [
        {
          "internalType": "address",
          "name": "",
          "type": "address"
        }
      ],
      "name": "lastReceived",
      "outputs": [
        {
          "internalType": "uint256",
          "name": "",
          "type": "uint256"
        }
      ],
      "stateMutability": "view",
      "type": "function",
      "constant": true
    },
    {
      "inputs": [],
      "name": "price",
      "outputs": [
        {
          "internalType": "uint256",
          "name": "",
          "type": "uint256"
        }
      ],
      "stateMutability": "view",
      "type": "function",
      "constant": true
    },
    {
      "inputs": [],
      "name": "priceKeeyUSDT",
      "outputs": [
        {
          "internalType": "uint256",
          "name": "",
          "type": "uint256"
        }
      ],
      "stateMutability": "view",
      "type": "function",
      "constant": true
    },
    {
      "inputs": [
        {
          "internalType": "uint256",
          "name": "",
          "type": "uint256"
        }
      ],
      "name": "sales",
      "outputs": [
        {
          "internalType": "address",
          "name": "investor",
          "type": "address"
        },
        {
          "internalType": "uint256",
          "name": "quantity",
          "type": "uint256"
        }
      ],
      "stateMutability": "view",
      "type": "function",
      "constant": true
    },
    {
      "inputs": [],
      "name": "token",
      "outputs": [
        {
          "internalType": "contract KEEYToken",
          "name": "",
          "type": "address"
        }
      ],
      "stateMutability": "view",
      "type": "function",
      "constant": true
    },
    {
      "inputs": [],
      "name": "usdt",
      "outputs": [
        {
          "internalType": "contract USDT",
          "name": "",
          "type": "address"
        }
      ],
      "stateMutability": "view",
      "type": "function",
      "constant": true
    },
    {
      "stateMutability": "payable",
      "type": "receive",
      "payable": true
    },
    {
      "inputs": [],
      "name": "buy",
      "outputs": [],
      "stateMutability": "payable",
      "type": "function",
      "payable": true
    },
    {
      "inputs": [
        {
          "internalType": "uint256",
          "name": "value",
          "type": "uint256"
        }
      ],
      "name": "buyKeeyUSDT",
      "outputs": [],
      "stateMutability": "nonpayable",
      "type": "function"
    },
    {
      "inputs": [
        {
          "internalType": "address",
          "name": "owner",
          "type": "address"
        }
      ],
      "name": "balanceOf",
      "outputs": [
        {
          "internalType": "uint256",
          "name": "",
          "type": "uint256"
        }
      ],
      "stateMutability": "view",
      "type": "function",
      "constant": true
    },
    {
      "inputs": [
        {
          "internalType": "address payable",
          "name": "to",
          "type": "address"
        },
        {
          "internalType": "uint256",
          "name": "amount",
          "type": "uint256"
        }
      ],
      "name": "withdraw",
      "outputs": [],
      "stateMutability": "nonpayable",
      "type": "function"
    },
    {
      "inputs": [
        {
          "internalType": "address",
          "name": "owner",
          "type": "address"
        }
      ],
      "name": "getLastReceiced",
      "outputs": [
        {
          "internalType": "bool",
          "name": "",
          "type": "bool"
        }
      ],
      "stateMutability": "view",
      "type": "function",
      "constant": true
    }
  ],
  "bytecode": "0x60806040523480156200001157600080fd5b5060006109c4604051620000259062000190565b6200003292919062000304565b604051809103906000f0801580156200004f573d6000803e3d6000fd5b50600260006101000a81548173ffffffffffffffffffffffffffffffffffffffff021916908373ffffffffffffffffffffffffffffffffffffffff1602179055507306a728975026e69a59c38c3fe61ae8c81769a317690a968163f0a57b400000604051620000be906200019e565b620000cb929190620003e3565b604051809103906000f080158015620000e8573d6000803e3d6000fd5b50600360006101000a81548173ffffffffffffffffffffffffffffffffffffffff021916908373ffffffffffffffffffffffffffffffffffffffff16021790555033600460006101000a81548173ffffffffffffffffffffffffffffffffffffffff021916908373ffffffffffffffffffffffffffffffffffffffff160217905550670de0b6b3a764000060058190555069021e19e0c9bab240000060068190555062000410565b6113d380620019c183390190565b611b488062002d9483390190565b600082825260208201905092915050565b7f6b65657920746f6b656e00000000000000000000000000000000000000000000600082015250565b6000620001f5600a83620001ac565b91506200020282620001bd565b602082019050919050565b7f4b45455900000000000000000000000000000000000000000000000000000000600082015250565b600062000245600483620001ac565b915062000252826200020d565b602082019050919050565b6000819050919050565b600060ff82169050919050565b6000819050919050565b60006200029f6200029962000293846200025d565b62000274565b62000267565b9050919050565b620002b1816200027e565b82525050565b6000819050919050565b6000819050919050565b6000620002ec620002e6620002e084620002b7565b62000274565b620002c1565b9050919050565b620002fe81620002cb565b82525050565b600060808201905081810360008301526200031f81620001e6565b90508181036020830152620003348162000236565b9050620003456040830185620002a6565b620003546060830184620002f3565b9392505050565b600073ffffffffffffffffffffffffffffffffffffffff82169050919050565b600062000388826200035b565b9050919050565b6200039a816200037b565b82525050565b6000819050919050565b6000620003cb620003c5620003bf84620003a0565b62000274565b620002c1565b9050919050565b620003dd81620003aa565b82525050565b6000604082019050620003fa60008301856200038f565b620004096020830184620003d2565b9392505050565b6115a180620004206000396000f3fe6080604052600436106100ab5760003560e01c8063b24e7da711610064578063b24e7da7146101ba578063b5f522f7146101f7578063d94c1faf14610235578063f3fef3a314610260578063f851a44014610289578063fc0c546a146102b4576100b2565b80632f48ab7d146100b757806370a08231146100e25780638588f6ea1461011f5780638c48200d1461015c578063a035b1fe14610185578063a6f2ae3a146101b0576100b2565b366100b257005b600080fd5b3480156100c357600080fd5b506100cc6102df565b6040516100d99190610da3565b60405180910390f35b3480156100ee57600080fd5b5061010960048036038101906101049190610e01565b610305565b6040516101169190610e47565b60405180910390f35b34801561012b57600080fd5b5061014660048036038101906101419190610e01565b6103aa565b6040516101539190610e47565b60405180910390f35b34801561016857600080fd5b50610183600480360381019061017e9190610e8e565b6103c2565b005b34801561019157600080fd5b5061019a6107e6565b6040516101a79190610e47565b60405180910390f35b6101b86107ec565b005b3480156101c657600080fd5b506101e160048036038101906101dc9190610e01565b610af8565b6040516101ee9190610ed6565b60405180910390f35b34801561020357600080fd5b5061021e60048036038101906102199190610e8e565b610b5c565b60405161022c929190610f00565b60405180910390f35b34801561024157600080fd5b5061024a610bb0565b6040516102579190610e47565b60405180910390f35b34801561026c57600080fd5b5061028760048036038101906102829190610f67565b610bb6565b005b34801561029557600080fd5b5061029e610c91565b6040516102ab9190610fa7565b60405180910390f35b3480156102c057600080fd5b506102c9610cb7565b6040516102d69190610fe3565b60405180910390f35b600360009054906101000a900473ffffffffffffffffffffffffffffffffffffffff1681565b6000600260009054906101000a900473ffffffffffffffffffffffffffffffffffffffff1673ffffffffffffffffffffffffffffffffffffffff166370a08231836040518263ffffffff1660e01b81526004016103629190610fa7565b602060405180830381865afa15801561037f573d6000803e3d6000fd5b505050506040513d601f19601f820116820180604052508101906103a39190611013565b9050919050565b60016020528060005260406000206000915090505481565b6000600654826103d2919061106f565b14610412576040517f08c379a0000000000000000000000000000000000000000000000000000000008152600401610409906110fd565b60405180910390fd5b600060065482610422919061114c565b905060008111610467576040517f08c379a000000000000000000000000000000000000000000000000000000000815260040161045e906111ef565b60405180910390fd5b600281600260009054906101000a900473ffffffffffffffffffffffffffffffffffffffff1673ffffffffffffffffffffffffffffffffffffffff166370a08231336040518263ffffffff1660e01b81526004016104c59190610fa7565b602060405180830381865afa1580156104e2573d6000803e3d6000fd5b505050506040513d601f19601f820116820180604052508101906105069190611013565b610510919061120f565b1115610551576040517f08c379a0000000000000000000000000000000000000000000000000000000008152600401610548906112b1565b60405180910390fd5b62015180600160003373ffffffffffffffffffffffffffffffffffffffff1673ffffffffffffffffffffffffffffffffffffffff16815260200190815260200160002054426105a091906112d1565b116105e0576040517f08c379a00000000000000000000000000000000000000000000000000000000081526004016105d790611377565b60405180910390fd5b600360009054906101000a900473ffffffffffffffffffffffffffffffffffffffff1673ffffffffffffffffffffffffffffffffffffffff166323b872dd3330856040518463ffffffff1660e01b815260040161063f93929190611397565b6020604051808303816000875af115801561065e573d6000803e3d6000fd5b505050506040513d601f19601f8201168201806040525081019061068291906113fa565b6106c1576040517f08c379a00000000000000000000000000000000000000000000000000000000081526004016106b890611473565b60405180910390fd5b600260009054906101000a900473ffffffffffffffffffffffffffffffffffffffff1673ffffffffffffffffffffffffffffffffffffffff1663a9059cbb33836040518363ffffffff1660e01b815260040161071e929190610f00565b6020604051808303816000875af115801561073d573d6000803e3d6000fd5b505050506040513d601f19601f8201168201806040525081019061076191906113fa565b6107a0576040517f08c379a0000000000000000000000000000000000000000000000000000000008152600401610797906114df565b60405180910390fd5b7f4aff2c4e63da20aaa26764b3e97f557bf5e95b76ddba8f97a156abbecb08184633826040516107d1929190610f00565b60405180910390a16107e233610cdd565b5050565b60055481565b6000600554346107fc919061106f565b1461083c576040517f08c379a0000000000000000000000000000000000000000000000000000000008152600401610833906110fd565b60405180910390fd5b60006005543461084c919061114c565b905060008111610891576040517f08c379a0000000000000000000000000000000000000000000000000000000008152600401610888906111ef565b60405180910390fd5b600281600260009054906101000a900473ffffffffffffffffffffffffffffffffffffffff1673ffffffffffffffffffffffffffffffffffffffff166370a08231336040518263ffffffff1660e01b81526004016108ef9190610fa7565b602060405180830381865afa15801561090c573d6000803e3d6000fd5b505050506040513d601f19601f820116820180604052508101906109309190611013565b61093a919061120f565b111561097b576040517f08c379a0000000000000000000000000000000000000000000000000000000008152600401610972906112b1565b60405180910390fd5b62015180600160003373ffffffffffffffffffffffffffffffffffffffff1673ffffffffffffffffffffffffffffffffffffffff16815260200190815260200160002054426109ca91906112d1565b11610a0a576040517f08c379a0000000000000000000000000000000000000000000000000000000008152600401610a0190611377565b60405180910390fd5b600260009054906101000a900473ffffffffffffffffffffffffffffffffffffffff1673ffffffffffffffffffffffffffffffffffffffff1663a9059cbb33836040518363ffffffff1660e01b8152600401610a67929190610f00565b6020604051808303816000875af1158015610a86573d6000803e3d6000fd5b505050506040513d601f19601f82011682018060405250810190610aaa91906113fa565b610ab357600080fd5b7f4aff2c4e63da20aaa26764b3e97f557bf5e95b76ddba8f97a156abbecb0818463382604051610ae4929190610f00565b60405180910390a1610af533610cdd565b50565b600080600160008473ffffffffffffffffffffffffffffffffffffffff1673ffffffffffffffffffffffffffffffffffffffff1681526020019081526020016000205442610b4691906112d1565b11610b52576001610b55565b60005b9050919050565b60008181548110610b6c57600080fd5b90600052602060002090600202016000915090508060000160009054906101000a900473ffffffffffffffffffffffffffffffffffffffff16908060010154905082565b60065481565b600460009054906101000a900473ffffffffffffffffffffffffffffffffffffffff1673ffffffffffffffffffffffffffffffffffffffff163373ffffffffffffffffffffffffffffffffffffffff1614610c46576040517f08c379a0000000000000000000000000000000000000000000000000000000008152600401610c3d9061154b565b60405180910390fd5b8173ffffffffffffffffffffffffffffffffffffffff166108fc829081150290604051600060405180830381858888f19350505050158015610c8c573d6000803e3d6000fd5b505050565b600460009054906101000a900473ffffffffffffffffffffffffffffffffffffffff1681565b600260009054906101000a900473ffffffffffffffffffffffffffffffffffffffff1681565b42600160008373ffffffffffffffffffffffffffffffffffffffff1673ffffffffffffffffffffffffffffffffffffffff1681526020019081526020016000208190555050565b600073ffffffffffffffffffffffffffffffffffffffff82169050919050565b6000819050919050565b6000610d69610d64610d5f84610d24565b610d44565b610d24565b9050919050565b6000610d7b82610d4e565b9050919050565b6000610d8d82610d70565b9050919050565b610d9d81610d82565b82525050565b6000602082019050610db86000830184610d94565b92915050565b600080fd5b6000610dce82610d24565b9050919050565b610dde81610dc3565b8114610de957600080fd5b50565b600081359050610dfb81610dd5565b92915050565b600060208284031215610e1757610e16610dbe565b5b6000610e2584828501610dec565b91505092915050565b6000819050919050565b610e4181610e2e565b82525050565b6000602082019050610e5c6000830184610e38565b92915050565b610e6b81610e2e565b8114610e7657600080fd5b50565b600081359050610e8881610e62565b92915050565b600060208284031215610ea457610ea3610dbe565b5b6000610eb284828501610e79565b91505092915050565b60008115159050919050565b610ed081610ebb565b82525050565b6000602082019050610eeb6000830184610ec7565b92915050565b610efa81610dc3565b82525050565b6000604082019050610f156000830185610ef1565b610f226020830184610e38565b9392505050565b6000610f3482610d24565b9050919050565b610f4481610f29565b8114610f4f57600080fd5b50565b600081359050610f6181610f3b565b92915050565b60008060408385031215610f7e57610f7d610dbe565b5b6000610f8c85828601610f52565b9250506020610f9d85828601610e79565b9150509250929050565b6000602082019050610fbc6000830184610ef1565b92915050565b6000610fcd82610d70565b9050919050565b610fdd81610fc2565b82525050565b6000602082019050610ff86000830184610fd4565b92915050565b60008151905061100d81610e62565b92915050565b60006020828403121561102957611028610dbe565b5b600061103784828501610ffe565b91505092915050565b7f4e487b7100000000000000000000000000000000000000000000000000000000600052601260045260246000fd5b600061107a82610e2e565b915061108583610e2e565b92508261109557611094611040565b5b828206905092915050565b600082825260208201905092915050565b7f4861766520746f2073656e642061206d756c7469706c65206f66207072696365600082015250565b60006110e76020836110a0565b91506110f2826110b1565b602082019050919050565b60006020820190508181036000830152611116816110da565b9050919050565b7f4e487b7100000000000000000000000000000000000000000000000000000000600052601160045260246000fd5b600061115782610e2e565b915061116283610e2e565b92508261117257611171611040565b5b828204905092915050565b7f596f75206e65656420746f20627579206174206c6561737420736f6d6520746f60008201527f6b656e7300000000000000000000000000000000000000000000000000000000602082015250565b60006111d96024836110a0565b91506111e48261117d565b604082019050919050565b60006020820190508181036000830152611208816111cc565b9050919050565b600061121a82610e2e565b915061122583610e2e565b9250827fffffffffffffffffffffffffffffffffffffffffffffffffffffffffffffffff0382111561125a5761125961111d565b5b828201905092915050565b7f57616c6c6574206275797320757020746f2032204b4545590000000000000000600082015250565b600061129b6018836110a0565b91506112a682611265565b602082019050919050565b600060208201905081810360008301526112ca8161128e565b9050919050565b60006112dc82610e2e565b91506112e783610e2e565b9250828210156112fa576112f961111d565b5b828203905092915050565b7f4572726f723a204a757374203031207472616e6665722070657220646179206660008201527f6f72207468697320616464726573732121210000000000000000000000000000602082015250565b60006113616032836110a0565b915061136c82611305565b604082019050919050565b6000602082019050818103600083015261139081611354565b9050919050565b60006060820190506113ac6000830186610ef1565b6113b96020830185610ef1565b6113c66040830184610e38565b949350505050565b6113d781610ebb565b81146113e257600080fd5b50565b6000815190506113f4816113ce565b92915050565b6000602082840312156114105761140f610dbe565b5b600061141e848285016113e5565b91505092915050565b7f7472616e7366657220757364742066616c736500000000000000000000000000600082015250565b600061145d6013836110a0565b915061146882611427565b602082019050919050565b6000602082019050818103600083015261148c81611450565b9050919050565b7f7472616e73666572206b6565792066616c736500000000000000000000000000600082015250565b60006114c96013836110a0565b91506114d482611493565b602082019050919050565b600060208201905081810360008301526114f8816114bc565b9050919050565b7f6f6e6c792061646d696e00000000000000000000000000000000000000000000600082015250565b6000611535600a836110a0565b9150611540826114ff565b602082019050919050565b6000602082019050818103600083015261156481611528565b905091905056fea26469706673582212202a524a57e0a811261c46385463ab0faf2261db7a1367ad3c611ccc7544ec85c964736f6c634300080a003360806040523480156200001157600080fd5b50604051620013d3380380620013d383398181016040528101906200003791906200039f565b83600090805190602001906200004f929190620000d9565b50826001908051906020019062000068929190620000d9565b5081600260006101000a81548160ff021916908360ff1602179055508060038190555080600460003373ffffffffffffffffffffffffffffffffffffffff1673ffffffffffffffffffffffffffffffffffffffff1681526020019081526020016000208190555050505050620004b4565b828054620000e7906200047e565b90600052602060002090601f0160209004810192826200010b576000855562000157565b82601f106200012657805160ff191683800117855562000157565b8280016001018555821562000157579182015b828111156200015657825182559160200191906001019062000139565b5b5090506200016691906200016a565b5090565b5b80821115620001855760008160009055506001016200016b565b5090565b6000604051905090565b600080fd5b600080fd5b600080fd5b600080fd5b6000601f19601f8301169050919050565b7f4e487b7100000000000000000000000000000000000000000000000000000000600052604160045260246000fd5b620001f282620001a7565b810181811067ffffffffffffffff82111715620002145762000213620001b8565b5b80604052505050565b60006200022962000189565b9050620002378282620001e7565b919050565b600067ffffffffffffffff8211156200025a5762000259620001b8565b5b6200026582620001a7565b9050602081019050919050565b60005b838110156200029257808201518184015260208101905062000275565b83811115620002a2576000848401525b50505050565b6000620002bf620002b9846200023c565b6200021d565b905082815260208101848484011115620002de57620002dd620001a2565b5b620002eb84828562000272565b509392505050565b600082601f8301126200030b576200030a6200019d565b5b81516200031d848260208601620002a8565b91505092915050565b600060ff82169050919050565b6200033e8162000326565b81146200034a57600080fd5b50565b6000815190506200035e8162000333565b92915050565b6000819050919050565b620003798162000364565b81146200038557600080fd5b50565b60008151905062000399816200036e565b92915050565b60008060008060808587031215620003bc57620003bb62000193565b5b600085015167ffffffffffffffff811115620003dd57620003dc62000198565b5b620003eb87828801620002f3565b945050602085015167ffffffffffffffff8111156200040f576200040e62000198565b5b6200041d87828801620002f3565b935050604062000430878288016200034d565b9250506060620004438782880162000388565b91505092959194509250565b7f4e487b7100000000000000000000000000000000000000000000000000000000600052602260045260246000fd5b600060028204905060018216806200049757607f821691505b60208210811415620004ae57620004ad6200044f565b5b50919050565b610f0f80620004c46000396000f3fe608060405234801561001057600080fd5b50600436106100a95760003560e01c8063313ce56711610071578063313ce5671461017a5780635c6581651461019857806370a08231146101c857806395d89b41146101f8578063a9059cbb14610216578063dd62ed3e14610246576100a9565b806306fdde03146100ae578063095ea7b3146100cc57806318160ddd146100fc57806323b872dd1461011a57806327e235e31461014a575b600080fd5b6100b6610276565b6040516100c39190610adb565b60405180910390f35b6100e660048036038101906100e19190610b96565b610304565b6040516100f39190610bf1565b60405180910390f35b61010461042f565b6040516101119190610c1b565b60405180910390f35b610134600480360381019061012f9190610c36565b610435565b6040516101419190610bf1565b60405180910390f35b610164600480360381019061015f9190610c89565b6106f5565b6040516101719190610c1b565b60405180910390f35b61018261070d565b60405161018f9190610cd2565b60405180910390f35b6101b260048036038101906101ad9190610ced565b610720565b6040516101bf9190610c1b565b60405180910390f35b6101e260048036038101906101dd9190610c89565b610745565b6040516101ef9190610c1b565b60405180910390f35b61020061078e565b60405161020d9190610adb565b60405180910390f35b610230600480360381019061022b9190610b96565b61081c565b60405161023d9190610bf1565b60405180910390f35b610260600480360381019061025b9190610ced565b6109bb565b60405161026d9190610c1b565b60405180910390f35b6000805461028390610d5c565b80601f01602080910402602001604051908101604052809291908181526020018280546102af90610d5c565b80156102fc5780601f106102d1576101008083540402835291602001916102fc565b820191906000526020600020905b8154815290600101906020018083116102df57829003601f168201915b505050505081565b60003373ffffffffffffffffffffffffffffffffffffffff168373ffffffffffffffffffffffffffffffffffffffff16141561033f57600080fd5b81600560003373ffffffffffffffffffffffffffffffffffffffff1673ffffffffffffffffffffffffffffffffffffffff16815260200190815260200160002060008573ffffffffffffffffffffffffffffffffffffffff1673ffffffffffffffffffffffffffffffffffffffff168152602001908152602001600020819055508273ffffffffffffffffffffffffffffffffffffffff163373ffffffffffffffffffffffffffffffffffffffff167f8c5be1e5ebec7d5bd14f71427d1e84f3dd0314c0f7b2291e5b200ac8c7c3b9258460405161041d9190610c1b565b60405180910390a36001905092915050565b60035481565b600080600560008673ffffffffffffffffffffffffffffffffffffffff1673ffffffffffffffffffffffffffffffffffffffff16815260200190815260200160002060003373ffffffffffffffffffffffffffffffffffffffff1673ffffffffffffffffffffffffffffffffffffffff16815260200190815260200160002054905082600460003373ffffffffffffffffffffffffffffffffffffffff1673ffffffffffffffffffffffffffffffffffffffff16815260200190815260200160002054101580156105065750828110155b610545576040517f08c379a000000000000000000000000000000000000000000000000000000000815260040161053c90610e00565b60405180910390fd5b82600560008773ffffffffffffffffffffffffffffffffffffffff1673ffffffffffffffffffffffffffffffffffffffff16815260200190815260200160002060003373ffffffffffffffffffffffffffffffffffffffff1673ffffffffffffffffffffffffffffffffffffffff16815260200190815260200160002060008282546105d19190610e4f565b9250508190555082600460003373ffffffffffffffffffffffffffffffffffffffff1673ffffffffffffffffffffffffffffffffffffffff16815260200190815260200160002060008282546106279190610e4f565b9250508190555082600460008673ffffffffffffffffffffffffffffffffffffffff1673ffffffffffffffffffffffffffffffffffffffff168152602001908152602001600020600082825461067d9190610e83565b925050819055508373ffffffffffffffffffffffffffffffffffffffff163373ffffffffffffffffffffffffffffffffffffffff167fddf252ad1be2c89b69c2b068fc378daa952ba7f163c4a11628f55a4df523b3ef856040516106e19190610c1b565b60405180910390a360019150509392505050565b60046020528060005260406000206000915090505481565b600260009054906101000a900460ff1681565b6005602052816000526040600020602052806000526040600020600091509150505481565b6000600460008373ffffffffffffffffffffffffffffffffffffffff1673ffffffffffffffffffffffffffffffffffffffff168152602001908152602001600020549050919050565b6001805461079b90610d5c565b80601f01602080910402602001604051908101604052809291908181526020018280546107c790610d5c565b80156108145780601f106107e957610100808354040283529160200191610814565b820191906000526020600020905b8154815290600101906020018083116107f757829003601f168201915b505050505081565b600081600460003373ffffffffffffffffffffffffffffffffffffffff1673ffffffffffffffffffffffffffffffffffffffff1681526020019081526020016000205410156108a0576040517f08c379a000000000000000000000000000000000000000000000000000000000815260040161089790610e00565b60405180910390fd5b81600460003373ffffffffffffffffffffffffffffffffffffffff1673ffffffffffffffffffffffffffffffffffffffff16815260200190815260200160002060008282546108ef9190610e4f565b9250508190555081600460008573ffffffffffffffffffffffffffffffffffffffff1673ffffffffffffffffffffffffffffffffffffffff16815260200190815260200160002060008282546109459190610e83565b925050819055508273ffffffffffffffffffffffffffffffffffffffff163373ffffffffffffffffffffffffffffffffffffffff167fddf252ad1be2c89b69c2b068fc378daa952ba7f163c4a11628f55a4df523b3ef846040516109a99190610c1b565b60405180910390a36001905092915050565b6000600560008473ffffffffffffffffffffffffffffffffffffffff1673ffffffffffffffffffffffffffffffffffffffff16815260200190815260200160002060008373ffffffffffffffffffffffffffffffffffffffff1673ffffffffffffffffffffffffffffffffffffffff16815260200190815260200160002054905092915050565b600081519050919050565b600082825260208201905092915050565b60005b83811015610a7c578082015181840152602081019050610a61565b83811115610a8b576000848401525b50505050565b6000601f19601f8301169050919050565b6000610aad82610a42565b610ab78185610a4d565b9350610ac7818560208601610a5e565b610ad081610a91565b840191505092915050565b60006020820190508181036000830152610af58184610aa2565b905092915050565b600080fd5b600073ffffffffffffffffffffffffffffffffffffffff82169050919050565b6000610b2d82610b02565b9050919050565b610b3d81610b22565b8114610b4857600080fd5b50565b600081359050610b5a81610b34565b92915050565b6000819050919050565b610b7381610b60565b8114610b7e57600080fd5b50565b600081359050610b9081610b6a565b92915050565b60008060408385031215610bad57610bac610afd565b5b6000610bbb85828601610b4b565b9250506020610bcc85828601610b81565b9150509250929050565b60008115159050919050565b610beb81610bd6565b82525050565b6000602082019050610c066000830184610be2565b92915050565b610c1581610b60565b82525050565b6000602082019050610c306000830184610c0c565b92915050565b600080600060608486031215610c4f57610c4e610afd565b5b6000610c5d86828701610b4b565b9350506020610c6e86828701610b4b565b9250506040610c7f86828701610b81565b9150509250925092565b600060208284031215610c9f57610c9e610afd565b5b6000610cad84828501610b4b565b91505092915050565b600060ff82169050919050565b610ccc81610cb6565b82525050565b6000602082019050610ce76000830184610cc3565b92915050565b60008060408385031215610d0457610d03610afd565b5b6000610d1285828601610b4b565b9250506020610d2385828601610b4b565b9150509250929050565b7f4e487b7100000000000000000000000000000000000000000000000000000000600052602260045260246000fd5b60006002820490506001821680610d7457607f821691505b60208210811415610d8857610d87610d2d565b5b50919050565b7f4b45455920696e20746865204163636f756e74206973206e6f7420656e6f756760008201527f6821000000000000000000000000000000000000000000000000000000000000602082015250565b6000610dea602283610a4d565b9150610df582610d8e565b604082019050919050565b60006020820190508181036000830152610e1981610ddd565b9050919050565b7f4e487b7100000000000000000000000000000000000000000000000000000000600052601160045260246000fd5b6000610e5a82610b60565b9150610e6583610b60565b925082821015610e7857610e77610e20565b5b828203905092915050565b6000610e8e82610b60565b9150610e9983610b60565b9250827fffffffffffffffffffffffffffffffffffffffffffffffffffffffffffffffff03821115610ece57610ecd610e20565b5b82820190509291505056fea26469706673582212200f093af603c6f0490c0f49ba6745a17103a20d83f96374f6d655326ff26c370664736f6c634300080a003360806040526000600460006101000a81548160ff0219169083151502179055506012600460016101000a81548160ff021916908360ff1602179055503480156200004857600080fd5b5060405162001b4838038062001b4883398181016040528101906200006e91906200024a565b336000806101000a81548173ffffffffffffffffffffffffffffffffffffffff021916908373ffffffffffffffffffffffffffffffffffffffff160217905550620000ca816003546200017460201b6200128e1790919060201c565b6003819055506200012981600260008573ffffffffffffffffffffffffffffffffffffffff1673ffffffffffffffffffffffffffffffffffffffff168152602001908152602001600020546200017460201b6200128e1790919060201c565b600260008473ffffffffffffffffffffffffffffffffffffffff1673ffffffffffffffffffffffffffffffffffffffff1681526020019081526020016000208190555050506200034c565b6000808284620001859190620002c0565b9050838110156200019b576200019a6200031d565b5b8091505092915050565b600080fd5b600073ffffffffffffffffffffffffffffffffffffffff82169050919050565b6000620001d782620001aa565b9050919050565b620001e981620001ca565b8114620001f557600080fd5b50565b6000815190506200020981620001de565b92915050565b6000819050919050565b62000224816200020f565b81146200023057600080fd5b50565b600081519050620002448162000219565b92915050565b60008060408385031215620002645762000263620001a5565b5b60006200027485828601620001f8565b9250506020620002878582860162000233565b9150509250929050565b7f4e487b7100000000000000000000000000000000000000000000000000000000600052601160045260246000fd5b6000620002cd826200020f565b9150620002da836200020f565b9250827fffffffffffffffffffffffffffffffffffffffffffffffffffffffffffffffff0382111562000312576200031162000291565b5b828201905092915050565b7f4e487b7100000000000000000000000000000000000000000000000000000000600052600160045260246000fd5b6117ec806200035c6000396000f3fe608060405234801561001057600080fd5b50600436106100f55760003560e01c8063661884631161009757806395d89b411161006657806395d89b411461029c578063a9059cbb146102ba578063d73dd623146102ea578063dd62ed3e1461031a576100f5565b8063661884631461020057806370a08231146102305780637d64bcb4146102605780638da5cb5b1461027e576100f5565b806318160ddd116100d357806318160ddd1461016457806323b872dd14610182578063313ce567146101b257806340c10f19146101d0576100f5565b806305d2035b146100fa578063095ea7b31461011857806313af403514610148575b600080fd5b61010261034a565b60405161010f91906112fc565b60405180910390f35b610132600480360381019061012d91906113b0565b61035d565b60405161013f91906112fc565b60405180910390f35b610162600480360381019061015d91906113f0565b61044f565b005b61016c610564565b604051610179919061142c565b60405180910390f35b61019c60048036038101906101979190611447565b61056e565b6040516101a991906112fc565b60405180910390f35b6101ba61078f565b6040516101c791906114b6565b60405180910390f35b6101ea60048036038101906101e591906113b0565b6107a2565b6040516101f791906112fc565b60405180910390f35b61021a600480360381019061021591906113b0565b610985565b60405161022791906112fc565b60405180910390f35b61024a600480360381019061024591906113f0565b610c16565b604051610257919061142c565b60405180910390f35b610268610c5f565b60405161027591906112fc565b60405180910390f35b610286610d22565b60405161029391906114e0565b60405180910390f35b6102a4610d46565b6040516102b19190611594565b60405180910390f35b6102d460048036038101906102cf91906113b0565b610d7f565b6040516102e191906112fc565b60405180910390f35b61030460048036038101906102ff91906113b0565b61100b565b60405161031191906112fc565b60405180910390f35b610334600480360381019061032f91906115b6565b611207565b604051610341919061142c565b60405180910390f35b600460009054906101000a900460ff1681565b600081600160003373ffffffffffffffffffffffffffffffffffffffff1673ffffffffffffffffffffffffffffffffffffffff16815260200190815260200160002060008573ffffffffffffffffffffffffffffffffffffffff1673ffffffffffffffffffffffffffffffffffffffff168152602001908152602001600020819055508273ffffffffffffffffffffffffffffffffffffffff163373ffffffffffffffffffffffffffffffffffffffff167f8c5be1e5ebec7d5bd14f71427d1e84f3dd0314c0f7b2291e5b200ac8c7c3b9258460405161043d919061142c565b60405180910390a36001905092915050565b60008054906101000a900473ffffffffffffffffffffffffffffffffffffffff1673ffffffffffffffffffffffffffffffffffffffff163373ffffffffffffffffffffffffffffffffffffffff16146104a757600080fd5b8073ffffffffffffffffffffffffffffffffffffffff1660008054906101000a900473ffffffffffffffffffffffffffffffffffffffff1673ffffffffffffffffffffffffffffffffffffffff167fcbf985117192c8f614a58aaf97226bb80a754772f5f6edf06f87c675f2e6c66360405160405180910390a3806000806101000a81548173ffffffffffffffffffffffffffffffffffffffff021916908373ffffffffffffffffffffffffffffffffffffffff16021790555050565b6000600354905090565b60008073ffffffffffffffffffffffffffffffffffffffff168373ffffffffffffffffffffffffffffffffffffffff1614156105a957600080fd5b600260008573ffffffffffffffffffffffffffffffffffffffff1673ffffffffffffffffffffffffffffffffffffffff168152602001908152602001600020548211156105f557600080fd5b61064782600260008773ffffffffffffffffffffffffffffffffffffffff1673ffffffffffffffffffffffffffffffffffffffff168152602001908152602001600020546112ba90919063ffffffff16565b600260008673ffffffffffffffffffffffffffffffffffffffff1673ffffffffffffffffffffffffffffffffffffffff168152602001908152602001600020819055506106dc82600260008673ffffffffffffffffffffffffffffffffffffffff1673ffffffffffffffffffffffffffffffffffffffff1681526020019081526020016000205461128e90919063ffffffff16565b600260008573ffffffffffffffffffffffffffffffffffffffff1673ffffffffffffffffffffffffffffffffffffffff168152602001908152602001600020819055508273ffffffffffffffffffffffffffffffffffffffff168473ffffffffffffffffffffffffffffffffffffffff167fddf252ad1be2c89b69c2b068fc378daa952ba7f163c4a11628f55a4df523b3ef8460405161077c919061142c565b60405180910390a3600190509392505050565b600460019054906101000a900460ff1681565b60008060009054906101000a900473ffffffffffffffffffffffffffffffffffffffff1673ffffffffffffffffffffffffffffffffffffffff163373ffffffffffffffffffffffffffffffffffffffff16146107fd57600080fd5b600460009054906101000a900460ff161561081757600080fd5b61082c8260035461128e90919063ffffffff16565b60038190555061088482600260008673ffffffffffffffffffffffffffffffffffffffff1673ffffffffffffffffffffffffffffffffffffffff1681526020019081526020016000205461128e90919063ffffffff16565b600260008573ffffffffffffffffffffffffffffffffffffffff1673ffffffffffffffffffffffffffffffffffffffff168152602001908152602001600020819055508273ffffffffffffffffffffffffffffffffffffffff167f0f6798a560793a54c3bcfe86a93cde1e73087d944c0ea20544137d41213968858360405161090d919061142c565b60405180910390a28273ffffffffffffffffffffffffffffffffffffffff16600073ffffffffffffffffffffffffffffffffffffffff167fddf252ad1be2c89b69c2b068fc378daa952ba7f163c4a11628f55a4df523b3ef84604051610973919061142c565b60405180910390a36001905092915050565b600080600160003373ffffffffffffffffffffffffffffffffffffffff1673ffffffffffffffffffffffffffffffffffffffff16815260200190815260200160002060008573ffffffffffffffffffffffffffffffffffffffff1673ffffffffffffffffffffffffffffffffffffffff16815260200190815260200160002054905080831115610a96576000600160003373ffffffffffffffffffffffffffffffffffffffff1673ffffffffffffffffffffffffffffffffffffffff16815260200190815260200160002060008673ffffffffffffffffffffffffffffffffffffffff1673ffffffffffffffffffffffffffffffffffffffff16815260200190815260200160002081905550610b2a565b610aa983826112ba90919063ffffffff16565b600160003373ffffffffffffffffffffffffffffffffffffffff1673ffffffffffffffffffffffffffffffffffffffff16815260200190815260200160002060008673ffffffffffffffffffffffffffffffffffffffff1673ffffffffffffffffffffffffffffffffffffffff168152602001908152602001600020819055505b8373ffffffffffffffffffffffffffffffffffffffff163373ffffffffffffffffffffffffffffffffffffffff167f8c5be1e5ebec7d5bd14f71427d1e84f3dd0314c0f7b2291e5b200ac8c7c3b925600160003373ffffffffffffffffffffffffffffffffffffffff1673ffffffffffffffffffffffffffffffffffffffff16815260200190815260200160002060008873ffffffffffffffffffffffffffffffffffffffff1673ffffffffffffffffffffffffffffffffffffffff16815260200190815260200160002054604051610c03919061142c565b60405180910390a3600191505092915050565b6000600260008373ffffffffffffffffffffffffffffffffffffffff1673ffffffffffffffffffffffffffffffffffffffff168152602001908152602001600020549050919050565b60008060009054906101000a900473ffffffffffffffffffffffffffffffffffffffff1673ffffffffffffffffffffffffffffffffffffffff163373ffffffffffffffffffffffffffffffffffffffff1614610cba57600080fd5b600460009054906101000a900460ff1615610cd457600080fd5b6001600460006101000a81548160ff0219169083151502179055507fae5184fba832cb2b1f702aca6117b8d265eaf03ad33eb133f19dde0f5920fa0860405160405180910390a16001905090565b60008054906101000a900473ffffffffffffffffffffffffffffffffffffffff1681565b6040518060400160405280600481526020017f555344540000000000000000000000000000000000000000000000000000000081525081565b60008073ffffffffffffffffffffffffffffffffffffffff168373ffffffffffffffffffffffffffffffffffffffff161415610df0576040517f08c379a0000000000000000000000000000000000000000000000000000000008152600401610de790611642565b60405180910390fd5b600260003373ffffffffffffffffffffffffffffffffffffffff1673ffffffffffffffffffffffffffffffffffffffff16815260200190815260200160002054821115610e72576040517f08c379a0000000000000000000000000000000000000000000000000000000008152600401610e69906116ae565b60405180910390fd5b610ec482600260003373ffffffffffffffffffffffffffffffffffffffff1673ffffffffffffffffffffffffffffffffffffffff168152602001908152602001600020546112ba90919063ffffffff16565b600260003373ffffffffffffffffffffffffffffffffffffffff1673ffffffffffffffffffffffffffffffffffffffff16815260200190815260200160002081905550610f5982600260008673ffffffffffffffffffffffffffffffffffffffff1673ffffffffffffffffffffffffffffffffffffffff1681526020019081526020016000205461128e90919063ffffffff16565b600260008573ffffffffffffffffffffffffffffffffffffffff1673ffffffffffffffffffffffffffffffffffffffff168152602001908152602001600020819055508273ffffffffffffffffffffffffffffffffffffffff163373ffffffffffffffffffffffffffffffffffffffff167fddf252ad1be2c89b69c2b068fc378daa952ba7f163c4a11628f55a4df523b3ef84604051610ff9919061142c565b60405180910390a36001905092915050565b600061109c82600160003373ffffffffffffffffffffffffffffffffffffffff1673ffffffffffffffffffffffffffffffffffffffff16815260200190815260200160002060008673ffffffffffffffffffffffffffffffffffffffff1673ffffffffffffffffffffffffffffffffffffffff1681526020019081526020016000205461128e90919063ffffffff16565b600160003373ffffffffffffffffffffffffffffffffffffffff1673ffffffffffffffffffffffffffffffffffffffff16815260200190815260200160002060008573ffffffffffffffffffffffffffffffffffffffff1673ffffffffffffffffffffffffffffffffffffffff168152602001908152602001600020819055508273ffffffffffffffffffffffffffffffffffffffff163373ffffffffffffffffffffffffffffffffffffffff167f8c5be1e5ebec7d5bd14f71427d1e84f3dd0314c0f7b2291e5b200ac8c7c3b925600160003373ffffffffffffffffffffffffffffffffffffffff1673ffffffffffffffffffffffffffffffffffffffff16815260200190815260200160002060008773ffffffffffffffffffffffffffffffffffffffff1673ffffffffffffffffffffffffffffffffffffffff168152602001908152602001600020546040516111f5919061142c565b60405180910390a36001905092915050565b6000600160008473ffffffffffffffffffffffffffffffffffffffff1673ffffffffffffffffffffffffffffffffffffffff16815260200190815260200160002060008373ffffffffffffffffffffffffffffffffffffffff1673ffffffffffffffffffffffffffffffffffffffff16815260200190815260200160002054905092915050565b600080828461129d91906116fd565b9050838110156112b0576112af611753565b5b8091505092915050565b6000828211156112cd576112cc611753565b5b81836112d99190611782565b905092915050565b60008115159050919050565b6112f6816112e1565b82525050565b600060208201905061131160008301846112ed565b92915050565b600080fd5b600073ffffffffffffffffffffffffffffffffffffffff82169050919050565b60006113478261131c565b9050919050565b6113578161133c565b811461136257600080fd5b50565b6000813590506113748161134e565b92915050565b6000819050919050565b61138d8161137a565b811461139857600080fd5b50565b6000813590506113aa81611384565b92915050565b600080604083850312156113c7576113c6611317565b5b60006113d585828601611365565b92505060206113e68582860161139b565b9150509250929050565b60006020828403121561140657611405611317565b5b600061141484828501611365565b91505092915050565b6114268161137a565b82525050565b6000602082019050611441600083018461141d565b92915050565b6000806000606084860312156114605761145f611317565b5b600061146e86828701611365565b935050602061147f86828701611365565b92505060406114908682870161139b565b9150509250925092565b600060ff82169050919050565b6114b08161149a565b82525050565b60006020820190506114cb60008301846114a7565b92915050565b6114da8161133c565b82525050565b60006020820190506114f560008301846114d1565b92915050565b600081519050919050565b600082825260208201905092915050565b60005b8381101561153557808201518184015260208101905061151a565b83811115611544576000848401525b50505050565b6000601f19601f8301169050919050565b6000611566826114fb565b6115708185611506565b9350611580818560208601611517565b6115898161154a565b840191505092915050565b600060208201905081810360008301526115ae818461155b565b905092915050565b600080604083850312156115cd576115cc611317565b5b60006115db85828601611365565b92505060206115ec85828601611365565b9150509250929050565b7f4f6e6c7920616c6c6f772073656e6420746f206f746865722e00000000000000600082015250565b600061162c601983611506565b9150611637826115f6565b602082019050919050565b6000602082019050818103600083015261165b8161161f565b9050919050565b7f496e73756666696369656e742066756e64000000000000000000000000000000600082015250565b6000611698601183611506565b91506116a382611662565b602082019050919050565b600060208201905081810360008301526116c78161168b565b9050919050565b7f4e487b7100000000000000000000000000000000000000000000000000000000600052601160045260246000fd5b60006117088261137a565b91506117138361137a565b9250827fffffffffffffffffffffffffffffffffffffffffffffffffffffffffffffffff03821115611748576117476116ce565b5b828201905092915050565b7f4e487b7100000000000000000000000000000000000000000000000000000000600052600160045260246000fd5b600061178d8261137a565b91506117988361137a565b9250828210156117ab576117aa6116ce565b5b82820390509291505056fea2646970667358221220ed3596c46d2e35ac8fa5d0a25aaa1c4cdb498d651d96df8816bfe7fd5f58b69f64736f6c634300080a0033",
  "immutableReferences": {},
  "source": "pragma solidity >=0.6.0 <0.9.0;\n\nimport './USDT.sol';\n\ninterface ERC20Interface {\n    function transfer(address to, uint tokens) external returns (bool success);\n    function transferFrom(address from, address to, uint tokens) external returns (bool success);\n    function balanceOf(address tokenOwner) external view returns (uint balance);\n    function approve(address spender, uint tokens) external returns (bool success);\n    function allowance(address tokenOwner, address spender) external view returns (uint remaining);\n    function totalSupply() external view returns (uint);\n\n    event Transfer(address indexed from, address indexed to, uint tokens);\n    event Approval(address indexed tokenOwner, address indexed spender, uint tokens);\n}\n\ncontract KEEYToken is ERC20Interface {\n    string public name;\n    string public symbol;\n    uint8 public decimals;\n    uint public override totalSupply;\n    mapping(address => uint) public balances;\n    mapping(address => mapping(address => uint)) public allowed;\n    \n    \n    constructor(\n        string memory _name,\n        string memory _symbol,\n        uint8 _decimals,\n        uint _totalSupply)\n         {\n            name = _name;\n            symbol = _symbol;\n            decimals = _decimals;\n            totalSupply = _totalSupply;\n            balances[msg.sender] = _totalSupply;\n        }\n        \n    function transfer(address to, uint value) public override returns(bool) {\n        require(balances[msg.sender] >= value,'KEEY in the Account is not enough!');\n        balances[msg.sender] -= value;\n        balances[to] += value;\n        emit Transfer(msg.sender, to, value);\n        return true;\n    }\n    \n    function transferFrom(address from, address to, uint value) public override returns(bool) {\n        uint allowance = allowed[from][msg.sender];\n        require(balances[msg.sender] >= value && allowance >= value,'KEEY in the Account is not enough!');\n        allowed[from][msg.sender] -= value;\n        balances[msg.sender] -= value;\n        balances[to] += value;\n        emit Transfer(msg.sender, to, value);\n        return true;\n    }\n    \n    function approve(address spender, uint value) public override returns(bool) {\n        require(spender != msg.sender);\n        allowed[msg.sender][spender] = value;\n        emit Approval(msg.sender, spender, value);\n        return true;\n    }\n    \n    function allowance(address owner, address spender) public override view returns(uint) {\n        return allowed[owner][spender];\n    }\n    \n    function balanceOf(address owner) public override view returns(uint) {\n        return balances[owner];\n    }\n}\n\ncontract BuyKEEYTokens {\n\n    struct Sale {\n            address investor;\n            uint quantity;\n        }\n    Sale[] public sales;\n    mapping (address => uint256) public lastReceived;\n\n    KEEYToken public token;\n    USDT public usdt;\n\n    address public admin;\n    uint public price;\n    uint public priceKeeyUSDT;\n\n    event BuyTokens(address buyer, uint256 amount);\n\n    constructor() {\n        //create key token\n        token = new KEEYToken(\"keey token\", \"KEEY\", 0, 2500);\n\n        usdt = new USDT(0x06a728975026e69a59c38C3FE61ae8c81769a317,50000 *(10 ** 18));\n\n        admin = msg.sender;\n        //gi keey/eth l 1 eth\n        price = 1 *(10 ** 18);\n        //gi keey/usdt l 10000\n        priceKeeyUSDT = 10000 *(10 ** 18);\n    }\n\n    receive() external payable {}\n    \n    function buy()payable external {\n        require(msg.value % price == 0, 'Have to send a multiple of price');\n\n        uint quantity = msg.value / price;\n        // quantily token buy > 0\n        require(quantity > 0, \"You need to buy at least some tokens\");\n        // quantily token in wallet and buy < 2\n        require((token.balanceOf(msg.sender) + quantity) <= 2, \"Wallet buys up to 2 KEEY\");\n        // last received time > 1 days\n        require(block.timestamp - lastReceived[msg.sender] > 1 days,\"Error: Just 01 tranfer per day for this address!!!\");\n\n        require(token.transfer(msg.sender, quantity));\n        emit BuyTokens(msg.sender, quantity);\n        \n        updateLastReceived(msg.sender);\n    }\n\n    function buyKeeyUSDT(uint value) external {\n        require(value % priceKeeyUSDT == 0, 'Have to send a multiple of price');\n\n        uint quantity = value / priceKeeyUSDT;\n        // quantily token buy > 0\n        require(quantity > 0, \"You need to buy at least some tokens\");\n        // quantity token in wallet and buy < 2\n        require((token.balanceOf(msg.sender) + quantity) <= 2, \"Wallet buys up to 2 KEEY\");\n        // last Received time > 1 days\n        require(block.timestamp - lastReceived[msg.sender] > 1 days,\"Error: Just 01 tranfer per day for this address!!!\");\n        //send usdt from buyer to contract address\n        require(usdt.transferFrom(msg.sender, address(this), value),'transfer usdt false');\n\n        //send keey token to buyer\n        require(token.transfer(msg.sender, quantity),'transfer keey false');\n        emit BuyTokens(msg.sender, quantity);\n        updateLastReceived(msg.sender);\n    }\n\n    function balanceOf(address owner) public view returns(uint) {\n        return token.balanceOf(owner);\n    }\n    \n    function withdraw(address payable to,uint amount)external onlyAdmin(){\n        to.transfer(amount);    \n    }\n\n    function getLastReceiced(address owner) public view returns(bool) {\n        return (block.timestamp - lastReceived[owner]) > 0 ? false : true;\n    }\n\n    function updateLastReceived(address receiver) internal {\n        lastReceived[receiver] = block.timestamp;\n    }\n    \n    modifier onlyAdmin() {\n        require(msg.sender == admin, 'only admin');\n        _;\n    }\n    \n}\n",
  "sourcePath": "/Users/thienma/Documents/GitHub/keey-token/contracts/keey-token.sol",
  "compiler": {
    "name": "solc",
    "version": "0.8.10+commit.fc410830.Emscripten.clang"
  },
  "schemaVersion": "3.4.3",
  "updatedAt": "2022-01-06T03:01:27.199Z",
  "networkType": "ethereum",
  "devdoc": {
    "kind": "dev",
    "methods": {},
    "version": 1
  },
  "userdoc": {
    "kind": "user",
    "methods": {},
    "version": 1
  }
}